:100000000C9472000C9493000C9493000C94930045
:100010000C9493000C94AB030C9468030C94930021
:100020000C9493000C9493000C9493000C94930004
:100030000C9493000C9493000C9493000C949300F4
:100040000C9493000C9493000C9493000C949300E4
:100050000C9493000C9493000C9493000C949300D4
:100060000C9493000C9493000C9493000C949300C4
:100070000C9493000C9493000C9493000C949300B4
:100080000C9493000C9493000C9493000C949300A4
:100090000C9493000C9493000C9493000C94930094
:1000A0000C9493000C9493000C9493000C94930084
:1000B0000C9493000C9485020C9493000C94930080
:1000C0000C9493000C9493000C9493000C947D0179
:1000D0000C9493000C9493000C9493000C94930054
:1000E0000C94930011241FBECFEFD1E2DEBFCDBF31
:1000F00000E00CBF12E0A0E0B2E0E8E6F8E000E0CB
:100100000BBF02C007900D92A230B107D9F712E0E1
:10011000A2E0B2E001C01D92AC31B107E1F70E944C
:10012000EE030C9432040C940000DF93CF93CDB710
:10013000DEB7A1E2B0E0E1E2F0E080818F608C9375
:10014000A2E2B0E0E2E2F0E08081807F8C93AAE05E
:10015000B1E0EAE0F1E0808188618C93ABE0B1E04E
:10016000EBE0F1E0808188618C93CF91DF9108957D
:10017000DF93CF93CDB7DEB7ADE2B0E0EDE2F0E0D4
:1001800080818F7E8C93AEE2B0E0EEE2F0E0808181
:1001900080618C93CF91DF910895DF93CF93CDB79A
:1001A000DEB7ADE2B0E0EDE2F0E080818F7D8C93D0
:1001B000AEE2B0E0EEE2F0E0808180628C93CF911D
:1001C000DF910895DF93CF93CDB7DEB70E949500FE
:1001D0000E94B8000E94CD00CF91DF910895DF9377
:1001E000CF93CDB7DEB7F894AAE6B0E0EAE6F0E048
:1001F000808182608C93ADE3B0E0EDE3F0E080813C
:1002000080618C937894CF91DF910895DF93CF93A1
:10021000CDB7DEB7F894AAE6B0E0EAE6F0E0808178
:1002200088608C93ADE3B0E0EDE3F0E08081806224
:100230008C937894CF91DF910895DF93CF93CDB7CE
:10024000DEB7E1E2F1E01082E5E2F1E08FEF8083DA
:10025000E4E2F1E081E08083E9E2F1E01082E8E2AB
:10026000F1E08FEF8083EBE2F1E01082EAE2F1E06F
:100270008FEF8083EDE2F1E01082ECE2F1E08FEFAE
:100280008083E0E2F1E089EA8083E1E2F1E08BE063
:100290008083CF91DF910895DF93CF930F920F92D8
:1002A000CDB7DEB789836A83E8E2F1E08981808394
:1002B000EAE2F1E08A8180830F900F90CF91DF9185
:1002C0000895DF93CF93CDB7DEB7E1EDF0E0108274
:1002D000E0EDF0E01082E2EDF0E086E08083E4ED16
:1002E000F0E08FE58083E5EDF0E01082E1EDF0E0F5
:1002F00088E98083CF91DF9108951F920F920FB606
:100300000F9200905B000F9211242F933F934F9315
:100310005F936F937F938F939F93AF93BF93EF936D
:10032000FF93DF93CF93CDB7DEB7E6EDF0E08081AA
:10033000809316028091140290911502209116026A
:10034000FC01E85EFD4F208380911402909115021C
:1003500001969093150280931402809118028134C3
:1003600021F0109215021092140220911402309183
:1003700015028091000290910102281739070CF4B0
:100380004BC080911802813409F046C010921502CA
:100390001092140280911A0290911B02692F0E9400
:1003A0004C0180911902883351F4E2E2F0E086E0DA
:1003B000808381E08093030281E080930202809138
:1003C0001902823341F4E2E2F0E089E08083109286
:1003D00003021092020280911902843349F4E2E28E
:1003E000F0E085E080831092030281E080930202B6
:1003F00080911902863349F4E2E2F0E08AE08083DA
:1004000081E08093030210920202809119028533E9
:1004100019F4E2E2F0E01082CF91DF91FF91EF91C9
:10042000BF91AF919F918F917F916F915F914F910C
:100430003F912F910F9000925B000F900FBE0F9095
:100440001F901895DF93CF93CDB7DEB7E1EAF0E0C8
:100450001082E5EAF0E087EF8083E4EAF0E01082C2
:10046000E9EAF0E01082E8EAF0E01082EBEAF0E07E
:100470001082EAEAF0E01082EDEAF0E01082ECEAA5
:10048000F0E01082E7EAF0E01082E6EAF0E01082A5
:10049000E0EAF0E01082E2EAF0E01082E1EAF0E067
:1004A00084E08083CF91DF910895DF93CF93CDB720
:1004B000DEB7F8940E94E2000E9461010E941D01D3
:1004C0000E942202E2E7F0E081E080830E94EF00D8
:1004D0000E9406017894CF91DF910895DF93CF9326
:1004E0000F92CDB7DEB78983E0EDF0E08081882FF1
:1004F00090E0807290700097B9F3E6EDF0E08981AA
:1005000080830F90CF91DF9108951F920F920FB6C5
:100510000F9200905B000F9211241F932F933F9333
:100520004F935F936F937F938F939F93AF93BF93FB
:10053000EF93FF93DF93CF930F92CDB7DEB7E1EA4E
:10054000F0E01082E5EAF0E087EF8083E4EAF0E093
:100550001082E1EAF0E084E0808381E40E946E0290
:1005600080910C0290910D02A0910E02B0910F02A9
:1005700020E031E040E050E0BC01CD010E94F503F5
:10058000DA01C9010E946E0280910C0290910D0265
:10059000A0910E02B0910F0220E031E040E050E067
:1005A000BC01CD010E94F503DC01CB010E946E026B
:1005B0008091040290910502A0910602B091070279
:1005C00020E031E040E050E0BC01CD010E94F503A5
:1005D000DA01C9010E946E02809104029091050225
:1005E000A0910602B091070220E031E040E050E027
:1005F000BC01CD010E94F503DC01CB010E946E021B
:1006000080910C0290910D02A0910E02B0910F0208
:1006100020E031E040E050E0BC01CD010E94F50354
:10062000DA01C901182F80910C0290910D02A0915E
:100630000E02B0910F0220E031E040E050E0BC013A
:10064000CD010E94F503DC01CB01180F809104025B
:1006500090910502A0910602B091070220E031E0DE
:1006600040E050E0BC01CD010E94F503DA01C90170
:10067000180F8091040290910502A0910602B0919A
:10068000070220E031E040E050E0BC01CD010E94D3
:10069000F503DC01CB01810F898389810E946E0201
:1006A0000F90CF91DF91FF91EF91BF91AF919F910B
:1006B0008F917F916F915F914F913F912F911F91FA
:1006C0000F9000925B000F900FBE0F901F90189537
:1006D0001F920F920FB60F9211248F939F93AF9397
:1006E000BF93DF93CF93CDB7DEB780910202813005
:1006F000A1F480910C0290910D02A0910E02B09194
:100700000F020196A11DB11D80930C0290930D0262
:10071000A0930E02B0930F0213C080910C0290912F
:100720000D02A0910E02B0910F020197A109B1092B
:1007300080930C0290930D02A0930E02B0930F02CF
:10074000CF91DF91BF91AF919F918F910F900FBE8D
:100750000F901F9018951F920F920FB60F921124B1
:100760008F939F93AF93BF93DF93CF93CDB7DEB7B4
:10077000809103028130A1F48091040290910502DE
:10078000A0910602B09107020196A11DB11D8093B0
:10079000040290930502A0930602B093070213C0CF
:1007A0008091040290910502A0910602B091070287
:1007B0000197A109B1098093040290930502A093C7
:1007C0000602B0930702CF91DF91BF91AF919F9145
:1007D0008F910F900FBE0F901F901895DF93CF93BE
:1007E000CDB7DEB70E945502FFCF97FB092E052635
:1007F0000ED057FD04D014D00AD0001C38F4509508
:100800004095309521953F4F4F4F5F4F0895F6F734
:1008100090958095709561957F4F8F4F9F4F08956C
:10082000A1E21A2EAA1BBB1BFD010DC0AA1FBB1FF4
:10083000EE1FFF1FA217B307E407F50720F0A21B66
:10084000B30BE40BF50B661F771F881F991F1A94D3
:1008500069F760957095809590959B01AC01BD01FD
:08086000CF010895F894FFCFC9
:0208680004008A
:00000001FF
